{
  "contractName": "Marketplace",
  "abi": [
    {
      "constant": true,
      "inputs": [],
      "name": "name",
      "outputs": [
        {
          "name": "",
          "type": "string"
        }
      ],
      "payable": false,
      "stateMutability": "view",
      "type": "function",
      "signature": "0x06fdde03"
    },
    {
      "constant": true,
      "inputs": [
        {
          "name": "",
          "type": "uint256"
        }
      ],
      "name": "products",
      "outputs": [
        {
          "name": "id",
          "type": "uint256"
        },
        {
          "name": "name",
          "type": "string"
        },
        {
          "name": "price",
          "type": "uint256"
        },
        {
          "name": "owner",
          "type": "address"
        },
        {
          "name": "purchased",
          "type": "bool"
        }
      ],
      "payable": false,
      "stateMutability": "view",
      "type": "function",
      "signature": "0x7acc0b20"
    },
    {
      "constant": true,
      "inputs": [],
      "name": "productCount",
      "outputs": [
        {
          "name": "",
          "type": "uint256"
        }
      ],
      "payable": false,
      "stateMutability": "view",
      "type": "function",
      "signature": "0xe0f6ef87"
    },
    {
      "inputs": [],
      "payable": false,
      "stateMutability": "nonpayable",
      "type": "constructor",
      "signature": "constructor"
    },
    {
      "anonymous": false,
      "inputs": [
        {
          "indexed": false,
          "name": "id",
          "type": "uint256"
        },
        {
          "indexed": false,
          "name": "name",
          "type": "string"
        },
        {
          "indexed": false,
          "name": "price",
          "type": "uint256"
        },
        {
          "indexed": false,
          "name": "owner",
          "type": "address"
        },
        {
          "indexed": false,
          "name": "purchased",
          "type": "bool"
        }
      ],
      "name": "ProductCreated",
      "type": "event",
      "signature": "0xbc59c0c8165864dcceb377dd07d8f431d4303f8e501cb0a0374a10cc68d71836"
    },
    {
      "anonymous": false,
      "inputs": [
        {
          "indexed": false,
          "name": "id",
          "type": "uint256"
        },
        {
          "indexed": false,
          "name": "name",
          "type": "string"
        },
        {
          "indexed": false,
          "name": "price",
          "type": "uint256"
        },
        {
          "indexed": false,
          "name": "owner",
          "type": "address"
        },
        {
          "indexed": false,
          "name": "purchased",
          "type": "bool"
        }
      ],
      "name": "ProductPurchased",
      "type": "event",
      "signature": "0x79558d0d7d4d900e2f15c4cc0a665f1acdbe415e44de900ecdd1e5bf12b56f4e"
    },
    {
      "anonymous": false,
      "inputs": [
        {
          "indexed": false,
          "name": "id",
          "type": "uint256"
        },
        {
          "indexed": false,
          "name": "name",
          "type": "string"
        },
        {
          "indexed": false,
          "name": "price",
          "type": "uint256"
        },
        {
          "indexed": false,
          "name": "owner",
          "type": "address"
        },
        {
          "indexed": false,
          "name": "purchased",
          "type": "bool"
        }
      ],
      "name": "ProductDeleted",
      "type": "event",
      "signature": "0xf496dc4104e8c07326315993c897f67e7884a69826c2955fd5616becff721413"
    },
    {
      "constant": false,
      "inputs": [
        {
          "name": "_name",
          "type": "string"
        },
        {
          "name": "_price",
          "type": "uint256"
        }
      ],
      "name": "createProduct",
      "outputs": [],
      "payable": false,
      "stateMutability": "nonpayable",
      "type": "function",
      "signature": "0xe9300c6c"
    },
    {
      "constant": false,
      "inputs": [
        {
          "name": "_id",
          "type": "uint256"
        }
      ],
      "name": "purchaseProduct",
      "outputs": [],
      "payable": true,
      "stateMutability": "payable",
      "type": "function",
      "signature": "0x38e76a03"
    },
    {
      "constant": false,
      "inputs": [
        {
          "name": "_id",
          "type": "uint256"
        }
      ],
      "name": "deleteProduct",
      "outputs": [],
      "payable": false,
      "stateMutability": "nonpayable",
      "type": "function",
      "signature": "0xed90c7b7"
    }
  ],
  "bytecode": "0x6080604052600060015534801561001557600080fd5b506040805190810160405280601b81526020017f4461707020556e6976657273697479204d61726b6574706c616365000000000081525060009080519060200190610061929190610067565b5061010c565b828054600181600116156101000203166002900490600052602060002090601f016020900481019282601f106100a857805160ff19168380011785556100d6565b828001600101855582156100d6579182015b828111156100d55782518255916020019190600101906100ba565b5b5090506100e391906100e7565b5090565b61010991905b808211156101055760008160009055506001016100ed565b5090565b90565b610fc78061011b6000396000f3fe608060405260043610610078576000357c0100000000000000000000000000000000000000000000000000000000900463ffffffff16806306fdde031461007d57806338e76a031461010d5780637acc0b201461013b578063e0f6ef871461023b578063e9300c6c14610266578063ed90c7b714610338575b600080fd5b34801561008957600080fd5b50610092610373565b6040518080602001828103825283818151815260200191508051906020019080838360005b838110156100d25780820151818401526020810190506100b7565b50505050905090810190601f1680156100ff5780820380516001836020036101000a031916815260200191505b509250505060405180910390f35b6101396004803603602081101561012357600080fd5b8101908080359060200190929190505050610411565b005b34801561014757600080fd5b506101746004803603602081101561015e57600080fd5b8101908080359060200190929190505050610829565b60405180868152602001806020018581526020018473ffffffffffffffffffffffffffffffffffffffff1673ffffffffffffffffffffffffffffffffffffffff16815260200183151515158152602001828103825286818151815260200191508051906020019080838360005b838110156101fc5780820151818401526020810190506101e1565b50505050905090810190601f1680156102295780820380516001836020036101000a031916815260200191505b50965050505050505060405180910390f35b34801561024757600080fd5b50610250610924565b6040518082815260200191505060405180910390f35b34801561027257600080fd5b506103366004803603604081101561028957600080fd5b81019080803590602001906401000000008111156102a657600080fd5b8201836020820111156102b857600080fd5b803590602001918460018302840111640100000000831117156102da57600080fd5b91908080601f016020809104026020016040519081016040528093929190818152602001838380828437600081840152601f19601f8201169050808301925050505050505091929192908035906020019092919050505061092a565b005b34801561034457600080fd5b506103716004803603602081101561035b57600080fd5b8101908080359060200190929190505050610b41565b005b60008054600181600116156101000203166002900480601f0160208091040260200160405190810160405280929190818152602001828054600181600116156101000203166002900480156104095780601f106103de57610100808354040283529160200191610409565b820191906000526020600020905b8154815290600101906020018083116103ec57829003601f168201915b505050505081565b610419610e66565b6002600083815260200190815260200160002060a0604051908101604052908160008201548152602001600182018054600181600116156101000203166002900480601f0160208091040260200160405190810160405280929190818152602001828054600181600116156101000203166002900480156104db5780601f106104b0576101008083540402835291602001916104db565b820191906000526020600020905b8154815290600101906020018083116104be57829003601f168201915b50505050508152602001600282015481526020016003820160009054906101000a900473ffffffffffffffffffffffffffffffffffffffff1673ffffffffffffffffffffffffffffffffffffffff1673ffffffffffffffffffffffffffffffffffffffff1681526020016003820160149054906101000a900460ff1615151515815250509050600081606001519050600082600001511180156105845750600154826000015111155b151561058f57600080fd5b816040015134101515156105a257600080fd5b81608001511515156105b357600080fd5b3373ffffffffffffffffffffffffffffffffffffffff168173ffffffffffffffffffffffffffffffffffffffff16141515156105ee57600080fd5b33826060019073ffffffffffffffffffffffffffffffffffffffff16908173ffffffffffffffffffffffffffffffffffffffff168152505060018260800190151590811515815250508160026000858152602001908152602001600020600082015181600001556020820151816001019080519060200190610671929190610eae565b506040820151816002015560608201518160030160006101000a81548173ffffffffffffffffffffffffffffffffffffffff021916908373ffffffffffffffffffffffffffffffffffffffff16021790555060808201518160030160146101000a81548160ff0219169083151502179055509050508073ffffffffffffffffffffffffffffffffffffffff166108fc349081150290604051600060405180830381858888f1935050505015801561072c573d6000803e3d6000fd5b507f79558d0d7d4d900e2f15c4cc0a665f1acdbe415e44de900ecdd1e5bf12b56f4e6001548360200151846040015133600160405180868152602001806020018581526020018473ffffffffffffffffffffffffffffffffffffffff1673ffffffffffffffffffffffffffffffffffffffff16815260200183151515158152602001828103825286818151815260200191508051906020019080838360005b838110156107e65780820151818401526020810190506107cb565b50505050905090810190601f1680156108135780820380516001836020036101000a031916815260200191505b50965050505050505060405180910390a1505050565b6002602052806000526040600020600091509050806000015490806001018054600181600116156101000203166002900480601f0160208091040260200160405190810160405280929190818152602001828054600181600116156101000203166002900480156108db5780601f106108b0576101008083540402835291602001916108db565b820191906000526020600020905b8154815290600101906020018083116108be57829003601f168201915b5050505050908060020154908060030160009054906101000a900473ffffffffffffffffffffffffffffffffffffffff16908060030160149054906101000a900460ff16905085565b60015481565b6000825111151561093a57600080fd5b60008111151561094957600080fd5b60016000815480929190600101919050555060a06040519081016040528060015481526020018381526020018281526020013373ffffffffffffffffffffffffffffffffffffffff168152602001600015158152506002600060015481526020019081526020016000206000820151816000015560208201518160010190805190602001906109d9929190610eae565b506040820151816002015560608201518160030160006101000a81548173ffffffffffffffffffffffffffffffffffffffff021916908373ffffffffffffffffffffffffffffffffffffffff16021790555060808201518160030160146101000a81548160ff0219169083151502179055509050507fbc59c0c8165864dcceb377dd07d8f431d4303f8e501cb0a0374a10cc68d71836600154838333600060405180868152602001806020018581526020018473ffffffffffffffffffffffffffffffffffffffff1673ffffffffffffffffffffffffffffffffffffffff16815260200183151515158152602001828103825286818151815260200191508051906020019080838360005b83811015610aff578082015181840152602081019050610ae4565b50505050905090810190601f168015610b2c5780820380516001836020036101000a031916815260200191505b50965050505050505060405180910390a15050565b610b49610e66565b6002600083815260200190815260200160002060a0604051908101604052908160008201548152602001600182018054600181600116156101000203166002900480601f016020809104026020016040519081016040528092919081815260200182805460018160011615610100020316600290048015610c0b5780601f10610be057610100808354040283529160200191610c0b565b820191906000526020600020905b815481529060010190602001808311610bee57829003601f168201915b50505050508152602001600282015481526020016003820160009054906101000a900473ffffffffffffffffffffffffffffffffffffffff1673ffffffffffffffffffffffffffffffffffffffff1673ffffffffffffffffffffffffffffffffffffffff1681526020016003820160149054906101000a900460ff161515151581525050905060008160600151905060008260000151118015610cb45750600154826000015111155b1515610cbf57600080fd5b3373ffffffffffffffffffffffffffffffffffffffff168173ffffffffffffffffffffffffffffffffffffffff16141515610cf957600080fd5b60026000848152602001908152602001600020600080820160009055600182016000610d259190610f2e565b60028201600090556003820160006101000a81549073ffffffffffffffffffffffffffffffffffffffff02191690556003820160146101000a81549060ff021916905550507ff496dc4104e8c07326315993c897f67e7884a69826c2955fd5616becff7214136001548360200151846040015133600160405180868152602001806020018581526020018473ffffffffffffffffffffffffffffffffffffffff1673ffffffffffffffffffffffffffffffffffffffff16815260200183151515158152602001828103825286818151815260200191508051906020019080838360005b83811015610e23578082015181840152602081019050610e08565b50505050905090810190601f168015610e505780820380516001836020036101000a031916815260200191505b50965050505050505060405180910390a1505050565b60a060405190810160405280600081526020016060815260200160008152602001600073ffffffffffffffffffffffffffffffffffffffff1681526020016000151581525090565b828054600181600116156101000203166002900490600052602060002090601f016020900481019282601f10610eef57805160ff1916838001178555610f1d565b82800160010185558215610f1d579182015b82811115610f1c578251825591602001919060010190610f01565b5b509050610f2a9190610f76565b5090565b50805460018160011615610100020316600290046000825580601f10610f545750610f73565b601f016020900490600052602060002090810190610f729190610f76565b5b50565b610f9891905b80821115610f94576000816000905550600101610f7c565b5090565b9056fea165627a7a723058201b6be6ad0ae1ab2ff61ec13912f02c56dccabe91b381516b8fabf453de5670c40029",
  "source": "pragma solidity ^0.5.0;\n\ncontract Marketplace {\n    string public name;\n    uint public productCount = 0;\n    mapping(uint => Product) public products;\n\n    constructor() public {\n        name = \"Dapp University Marketplace\";\n    }\n\n    struct Product {\n        uint id;\n        string name;\n        uint price;\n        address payable owner;\n        bool purchased;\n}\n\nevent ProductCreated(\n        uint id,\n        string name,\n        uint price,\n        address payable owner,\n        bool purchased\n    );\n\n event ProductPurchased(\n    uint id,\n    string name,\n    uint price,\n    address payable owner,\n    bool purchased\n);\n\nevent ProductDeleted(\n    uint id,\n    string name,\n    uint price,\n    address payable owner,\n    bool purchased\n);\n\nfunction createProduct(string memory _name, uint _price) public {\n    // Require a valid name\n    require(bytes(_name).length > 0);\n    // Require a valid price\n    require(_price > 0);\n    // Increment product count\n    productCount ++;\n    // Create the product\n    products[productCount] = Product(productCount, _name, _price, msg.sender, false);\n    // Trigger an event\n    emit ProductCreated(productCount, _name, _price, msg.sender, false);\n}\n\nfunction purchaseProduct(uint _id) public payable {\n    // Fetch the product\n    Product memory _product = products[_id];\n    // Fetch the owner\n    address payable _seller = _product.owner;\n    // Make sure the product has a valid id\n    require(_product.id > 0 && _product.id <= productCount);\n    // Require that there is enough Ether in the transaction\n    require(msg.value >= _product.price);\n    // Require that the product has not been purchased already\n    require(!_product.purchased);\n    // Require that the buyer is not the seller\n    require(_seller != msg.sender);\n    // Transfer ownership to the buyer\n    _product.owner = msg.sender;\n    // Mark as purchased\n    _product.purchased = true;\n    // Update the product\n    products[_id] = _product;\n    // Pay the seller by sending them Ether\n    address(_seller).transfer(msg.value);\n    // Trigger an event\n    emit ProductPurchased(productCount, _product.name, _product.price, msg.sender, true);\n}\n\nfunction deleteProduct(uint _id) public {\n    // Fetch the product\n    Product memory _product = products[_id];\n    // Fetch the owner\n    address payable _seller = _product.owner;\n    // Make sure the product has a valid id\n    require(_product.id > 0 && _product.id <= productCount);\n    \n    // Require that the product owner is mathcing with current user\n    require(_seller==msg.sender);\n  \n    delete products[_id];\n  \n    // Trigger an event\n    emit ProductDeleted(productCount, _product.name, _product.price, msg.sender, true);\n}\n\n\n}",
  "sourcePath": "/Users/nishanhegde/Desktop/blockchain/marketplace/src/contracts/Marketplace.sol",
  "compiler": {
    "name": "solc",
    "version": "0.5.0+commit.1d4f565a.Emscripten.clang"
  },
  "schemaVersion": "3.0.2",
  "updatedAt": "2023-09-13T15:22:56.115Z",
  "devdoc": {
    "methods": {}
  },
  "userdoc": {
    "methods": {}
  }
}